{"abi":[{"type":"constructor","inputs":[{"name":"minterAddress","type":"address","internalType":"address"}],"stateMutability":"nonpayable"},{"type":"function","name":"burn","inputs":[{"name":"amount","type":"uint256","internalType":"uint256"},{"name":"fromERC20","type":"address","internalType":"address"},{"name":"recipientID","type":"bytes","internalType":"bytes"}],"outputs":[{"name":"","type":"uint32","internalType":"uint32"}],"stateMutability":"nonpayable"},{"type":"function","name":"deployERC20","inputs":[{"name":"name","type":"string","internalType":"string"},{"name":"symbol","type":"string","internalType":"string"},{"name":"baseTokenID","type":"bytes32","internalType":"bytes32"}],"outputs":[{"name":"","type":"address","internalType":"address"}],"stateMutability":"nonpayable"},{"type":"function","name":"getBaseToken","inputs":[{"name":"wrappedTokenAddress","type":"address","internalType":"address"}],"outputs":[{"name":"","type":"bytes32","internalType":"bytes32"}],"stateMutability":"view"},{"type":"function","name":"getDepositBlocks","inputs":[],"outputs":[{"name":"","type":"uint32[]","internalType":"uint32[]"}],"stateMutability":"view"},{"type":"function","name":"getMinterAddress","inputs":[],"outputs":[{"name":"","type":"address","internalType":"address"}],"stateMutability":"view"},{"type":"function","name":"getWrappedToken","inputs":[{"name":"baseTokenID","type":"bytes32","internalType":"bytes32"}],"outputs":[{"name":"","type":"address","internalType":"address"}],"stateMutability":"view"},{"type":"function","name":"increment","inputs":[{"name":"buffer","type":"tuple","internalType":"struct BFTBridge.RingBuffer","components":[{"name":"begin","type":"uint8","internalType":"uint8"},{"name":"end","type":"uint8","internalType":"uint8"}]}],"outputs":[{"name":"","type":"tuple","internalType":"struct BFTBridge.RingBuffer","components":[{"name":"begin","type":"uint8","internalType":"uint8"},{"name":"end","type":"uint8","internalType":"uint8"}]}],"stateMutability":"pure"},{"type":"function","name":"mint","inputs":[{"name":"encodedOrder","type":"bytes","internalType":"bytes"}],"outputs":[],"stateMutability":"nonpayable"},{"type":"function","name":"minterCanisterAddress","inputs":[],"outputs":[{"name":"","type":"address","internalType":"address"}],"stateMutability":"view"},{"type":"function","name":"operationIDCounter","inputs":[],"outputs":[{"name":"","type":"uint32","internalType":"uint32"}],"stateMutability":"view"},{"type":"function","name":"size","inputs":[{"name":"buffer","type":"tuple","internalType":"struct BFTBridge.RingBuffer","components":[{"name":"begin","type":"uint8","internalType":"uint8"},{"name":"end","type":"uint8","internalType":"uint8"}]}],"outputs":[{"name":"","type":"uint8","internalType":"uint8"}],"stateMutability":"pure"},{"type":"function","name":"toIDfromBaseAddress","inputs":[{"name":"chainID","type":"uint32","internalType":"uint32"},{"name":"toAddress","type":"address","internalType":"address"}],"outputs":[{"name":"toID","type":"bytes32","internalType":"bytes32"}],"stateMutability":"pure"},{"type":"function","name":"truncateUTF8","inputs":[{"name":"input","type":"string","internalType":"string"}],"outputs":[{"name":"result","type":"bytes32","internalType":"bytes32"}],"stateMutability":"pure"},{"type":"event","name":"BurnTokenEvent","inputs":[{"name":"sender","type":"address","indexed":false,"internalType":"address"},{"name":"amount","type":"uint256","indexed":false,"internalType":"uint256"},{"name":"fromERC20","type":"address","indexed":false,"internalType":"address"},{"name":"recipientID","type":"bytes","indexed":false,"internalType":"bytes"},{"name":"toToken","type":"bytes32","indexed":false,"internalType":"bytes32"},{"name":"operationID","type":"uint32","indexed":false,"internalType":"uint32"},{"name":"name","type":"bytes32","indexed":false,"internalType":"bytes32"},{"name":"symbol","type":"bytes16","indexed":false,"internalType":"bytes16"},{"name":"decimals","type":"uint8","indexed":false,"internalType":"uint8"}],"anonymous":false},{"type":"event","name":"MintTokenEvent","inputs":[{"name":"amount","type":"uint256","indexed":false,"internalType":"uint256"},{"name":"fromToken","type":"bytes32","indexed":false,"internalType":"bytes32"},{"name":"senderID","type":"bytes32","indexed":false,"internalType":"bytes32"},{"name":"toERC20","type":"address","indexed":false,"internalType":"address"},{"name":"recipient","type":"address","indexed":false,"internalType":"address"},{"name":"nonce","type":"uint32","indexed":false,"internalType":"uint32"}],"anonymous":false},{"type":"event","name":"WrappedTokenDeployedEvent","inputs":[{"name":"name","type":"string","indexed":false,"internalType":"string"},{"name":"symbol","type":"string","indexed":false,"internalType":"string"},{"name":"baseTokenID","type":"bytes32","indexed":false,"internalType":"bytes32"},{"name":"wrappedERC20","type":"address","indexed":false,"internalType":"address"}],"anonymous":false},{"type":"error","name":"AddressEmptyCode","inputs":[{"name":"target","type":"address","internalType":"address"}]},{"type":"error","name":"AddressInsufficientBalance","inputs":[{"name":"account","type":"address","internalType":"address"}]},{"type":"error","name":"ECDSAInvalidSignature","inputs":[]},{"type":"error","name":"ECDSAInvalidSignatureLength","inputs":[{"name":"length","type":"uint256","internalType":"uint256"}]},{"type":"error","name":"ECDSAInvalidSignatureS","inputs":[{"name":"s","type":"bytes32","internalType":"bytes32"}]},{"type":"error","name":"FailedInnerCall","inputs":[]},{"type":"error","name":"SafeERC20FailedOperation","inputs":[{"name":"token","type":"address","internalType":"address"}]}],"bytecode":{"object":"0x6080604052348015600f57600080fd5b50604051612e11380380612e11833981016040819052602c916050565b600580546001600160a01b0319166001600160a01b0392909216919091179055607e565b600060208284031215606157600080fd5b81516001600160a01b0381168114607757600080fd5b9392505050565b612d848061008d6000396000f3fe608060405234801561001057600080fd5b50600436106100cf5760003560e01c80637ba0e2e71161008c578063938bef4011610066578063938bef40146101fe57806393e5d42a1461022757806394c2dfa114610238578063ab5e33a31461025d57600080fd5b80637ba0e2e7146101bf57806384e7ee82146101d457806392e2390a146101e757600080fd5b80630c10fd0f146100d45780632e342d491461011057806343bbf0c4146101385780634ab092731461014b57806352206d371461017f578063565e432414610194575b600080fd5b6100fd6100e2366004611574565b6001600160a01b031660009081526004602052604090205490565b6040519081526020015b60405180910390f35b61012361011e36600461163c565b610270565b60405163ffffffff9091168152602001610107565b6100fd6101463660046116a7565b61061f565b61015e6101593660046116f4565b610695565b60408051825160ff9081168252602093840151169281019290925201610107565b6101876106d2565b6040516101079190611753565b6005546101a7906001600160a01b031681565b6040516001600160a01b039091168152602001610107565b6101d26101cd36600461179d565b6107ce565b005b6101a76101e236600461182f565b6109e5565b60055461012390600160a01b900463ffffffff1681565b6101a761020c36600461189c565b6000908152600360205260409020546001600160a01b031690565b6005546001600160a01b03166101a7565b61024b6102463660046116f4565b610afe565b60405160ff9091168152602001610107565b6100fd61026b3660046118b5565b610b52565b6000306001600160a01b038416036102e35760405162461bcd60e51b815260206004820152602b60248201527f46726f6d2061646472657373206d757374206e6f74206265204246542062726960448201526a646765206164647265737360a81b60648201526084015b60405180910390fd5b6102f86001600160a01b038416333087610c5e565b6001600160a01b038316600090815260046020526040902054846103545760405162461bcd60e51b8152602060048201526013602482015272125b9d985b1a5908189d5c9b88185b5bdd5b9d606a1b60448201526064016102da565b6001600160a01b0384166103a15760405162461bcd60e51b8152602060048201526014602482015273496e76616c69642066726f6d206164647265737360601b60448201526064016102da565b33600081815260026020908152604080832081518083018352905460ff80821683526101009091048116828501908152958552600184528285209551168452939091529020805463ffffffff19164363ffffffff1617905561040281610695565b33600090815260026020908152604080832084518154959093015160ff9081166101000261ffff1990961693169290921793909317905581516306fdde0360e01b815291519091829182916001600160a01b038a16916306fdde039160048082019286929091908290030181865afa9250505080156104a357506040513d6000823e601f3d908101601f191682016040526104a09190810190611916565b60015b156104b5576104b181610b52565b9350505b876001600160a01b03166395d89b416040518163ffffffff1660e01b8152600401600060405180830381865afa92505050801561051457506040513d6000823e601f3d908101601f191682016040526105119190810190611916565b60015b156105265761052281610b52565b9250505b876001600160a01b031663313ce5676040518163ffffffff1660e01b8152600401602060405180830381865afa925050508015610580575060408051601f3d908101601f1916820190925261057d9181019061198d565b60015b156105885790505b60058054600091600160a01b90910463ffffffff169060146105a9836119c0565b91906101000a81548163ffffffff021916908363ffffffff16021790555090507ffa3804fd5313cc219c6d3a833f7dbc2b1b48ac5edbae532006f1aa876a23eb79338b8b8b8a868a8a8a60405161060899989796959493929190611a0f565b60405180910390a1955050505050505b9392505050565b604051600160f81b60208201526001600160e01b031960e084901b1660218201526bffffffffffffffffffffffff19606083901b166025820152600060398201819052603d82018190526008603f83015290605f0160405160208183030381529060405261068c90611a84565b90505b92915050565b604080518082019091526000808252602082015260208201805160010160ff90811691829052835116036106ce57815160010160ff1682525b5090565b33600090815260026020908152604080832081518083019092525460ff8082168352610100909104169181019190915260609161070e82610afe565b905060008160ff1667ffffffffffffffff81111561072e5761072e61158f565b604051908082528060200260200182016040528015610757578160200160208202803683370190505b5083519091505b836020015160ff168160ff16146107c65733600090815260016020908152604080832060ff8516808552925290912054835163ffffffff90911691849181106107a9576107a9611aab565b63ffffffff9092166020928302919091019091015260010161075e565b509392505050565b60006107e56107e060c5838587611ac1565b610ccb565b90506107f183836110b3565b6040808201516000908152600360205220546001600160a01b031680610818575060808101515b6001600160a01b0381166108845760405162461bcd60e51b815260206004820152602d60248201527f746f546f6b656e20616464726573732073686f756c642062652073706563696660448201526c69656420636f72726563746c7960981b60648201526084016102da565b60c082015160e083015161010084015160405163ab8c131f60e01b815260048101939093526001600160801b0319909116602483015260ff1660448201526001600160a01b0382169063ab8c131f90606401600060405180830381600087803b1580156108f057600080fd5b505af1158015610904573d6000803e3d6000fd5b5050506020808401516000908152808252604080822060a087015163ffffffff908116845293529020805460ff191660011790556060840151845161095593506001600160a01b0385169261117c16565b7f4e37fc8684e0f7ad6a6c1178855450294a16b418314493bd7883699e6b3a01408260000151836040015184602001518486606001518760a001516040516109d796959493929190958652602086019490945260408501929092526001600160a01b03908116606085015216608083015263ffffffff1660a082015260c00190565b60405180910390a150505050565b6000818152600360205260408120546001600160a01b031615610a425760405162461bcd60e51b815260206004820152601560248201527415dc985c1c195c88185b1c9958591e48195e1a5cdd605a1b60448201526064016102da565b6000848430604051610a539061154b565b610a5f93929190611aeb565b604051809103906000f080158015610a7b573d6000803e3d6000fd5b50600084815260036020908152604080832080546001600160a01b0319166001600160a01b0386169081179091558352600490915290819020859055519091507f9f59e6464af124449b7f69a5ccff49811edb4f11c069da00fe22122aa5b7932d90610aee908790879087908690611b29565b60405180910390a1949350505050565b600080826020015160ff16836000015160ff1611610b2e5782516020840151610b279190611b70565b905061068f565b8251602084015160ff91821691610b489116610100611b89565b61068c9190611bab565b600080829050602081511080610b83575080601f81518110610b7657610b76611aab565b0160200151600160ff1b16155b15610b92576020015192915050565b8051600003610ba45750600092915050565b601f5b818160ff1681518110610bbc57610bbc611aab565b602091010151600360fe1b16600160ff1b14610c3057805b60208160ff161015610c2357600060f81b838260ff1681518110610bfa57610bfa611aab565b60200101906001600160f81b031916908160001a905350610c1c600182611bc6565b9050610bd4565b5060208201519250610c57565b8060ff16600003610c45575060009392505050565b80610c4f81611bdf565b915050610ba7565b5050919050565b6040516001600160a01b038481166024830152838116604483015260648201839052610cc59186918216906323b872dd906084015b604051602081830303815290604052915060e01b6020820180516001600160e01b0383818316178352505050506111b2565b50505050565b6040805161014081018252600080825260208201819052918101829052606081018290526080810182905260a0810182905260c0810182905260e0810182905261010081018290526101208101919091526000610d2b6020828587611ac1565b610d3491611bfc565b90506000610d46604060208688611ac1565b610d4f91611bfc565b90506000610d61606060408789611ac1565b610d6a91611bfc565b90506000610d7c60746060888a611ac1565b610d8591611c1a565b60601c90506000610d9a60886074898b611ac1565b610da391611c1a565b60601c90506000610db8608c60888a8c611ac1565b610dc191611c4f565b60e01c90506000610dd66090608c8b8d611ac1565b610ddf91611c4f565b60e01c90506000610df4609460908c8e611ac1565b610dfd91611c4f565b60e01c90506000610e1260b460948d8f611ac1565b610e1b91611bfc565b905060008c8c60b49060c492610e3393929190611ac1565b610e3c91611c7d565b905060008d8d60c4818110610e5357610e53611aab565b919091013560f81c9150506001600160a01b038816610eb45760405162461bcd60e51b815260206004820152601b60248201527f496e76616c69642064657374696e6174696f6e2061646472657373000000000060448201526064016102da565b60008b11610efb5760405162461bcd60e51b8152602060048201526014602482015273125b9d985b1a59081bdc99195c88185b5bdd5b9d60621b60448201526064016102da565b60008a81526020818152604080832063ffffffff8a16845290915290205460ff1615610f595760405162461bcd60e51b815260206004820152600d60248201526c496e76616c6964206e6f6e636560981b60448201526064016102da565b8363ffffffff164614610fa15760405162461bcd60e51b815260206004820152601060248201526f125b9d985b1a590818da185a5b88125160821b60448201526064016102da565b6001600160a01b0387166000908152600460205260409020541561103d576000898152600360205260409020546001600160a01b0388811691161461103d5760405162461bcd60e51b815260206004820152602c60248201527f53524320746f6b656e20616e642044535420746f6b656e206d7573742062652060448201526b30903b30b634b2103830b4b960a11b60648201526084016102da565b60408051610140810182529b8c5260208c019a909a52988a01979097526001600160a01b0395861660608a015293909416608088015263ffffffff91821660a088015260c08701929092526001600160801b031990931660e086015260ff90931661010085015250166101208201529392505050565b60006110c260c5828486611ac1565b6040516110d0929190611cab565b60405190819003902090506000611128826110ee8560c58189611ac1565b8080601f01602080910402602001604051908101604052809392919081815260200183838082843760009201919091525061121592505050565b6005549091506001600160a01b03808316911614610cc55760405162461bcd60e51b8152602060048201526011602482015270496e76616c6964207369676e617475726560781b60448201526064016102da565b6040516001600160a01b038381166024830152604482018390526111ad91859182169063a9059cbb90606401610c93565b505050565b60006111c76001600160a01b0384168361123f565b905080516000141580156111ec5750808060200190518101906111ea9190611cbb565b155b156111ad57604051635274afe760e01b81526001600160a01b03841660048201526024016102da565b600080600080611225868661124d565b925092509250611235828261129a565b5090949350505050565b606061068c83836000611357565b600080600083516041036112875760208401516040850151606086015160001a611279888285856113f4565b955095509550505050611293565b50508151600091506002905b9250925092565b60008260038111156112ae576112ae611cdd565b036112b7575050565b60018260038111156112cb576112cb611cdd565b036112e95760405163f645eedf60e01b815260040160405180910390fd5b60028260038111156112fd576112fd611cdd565b0361131e5760405163fce698f760e01b8152600481018290526024016102da565b600382600381111561133257611332611cdd565b03611353576040516335e2f38360e21b8152600481018290526024016102da565b5050565b60608147101561137c5760405163cd78605960e01b81523060048201526024016102da565b600080856001600160a01b031684866040516113989190611cf3565b60006040518083038185875af1925050503d80600081146113d5576040519150601f19603f3d011682016040523d82523d6000602084013e6113da565b606091505b50915091506113ea8683836114c3565b9695505050505050565b600080807f7fffffffffffffffffffffffffffffff5d576e7357a4501ddfe92f46681b20a084111561142f57506000915060039050826114b9565b604080516000808252602082018084528a905260ff891692820192909252606081018790526080810186905260019060a0016020604051602081039080840390855afa158015611483573d6000803e3d6000fd5b5050604051601f1901519150506001600160a01b0381166114af575060009250600191508290506114b9565b9250600091508190505b9450945094915050565b6060826114d8576114d38261151f565b610618565b81511580156114ef57506001600160a01b0384163b155b1561151857604051639996b31560e01b81526001600160a01b03851660048201526024016102da565b5080610618565b80511561152f5780518082602001fd5b604051630a12f52160e11b815260040160405180910390fd5b50565b61103f80611d1083390190565b80356001600160a01b038116811461156f57600080fd5b919050565b60006020828403121561158657600080fd5b61068c82611558565b634e487b7160e01b600052604160045260246000fd5b604051601f8201601f1916810167ffffffffffffffff811182821017156115ce576115ce61158f565b604052919050565b600067ffffffffffffffff8211156115f0576115f061158f565b50601f01601f191660200190565b600061161161160c846115d6565b6115a5565b905082815283838301111561162557600080fd5b828260208301376000602084830101529392505050565b60008060006060848603121561165157600080fd5b8335925061166160208501611558565b9150604084013567ffffffffffffffff81111561167d57600080fd5b8401601f8101861361168e57600080fd5b61169d868235602084016115fe565b9150509250925092565b600080604083850312156116ba57600080fd5b823563ffffffff811681146116ce57600080fd5b91506116dc60208401611558565b90509250929050565b60ff8116811461154857600080fd5b60006040828403121561170657600080fd5b6040516040810181811067ffffffffffffffff821117156117295761172961158f565b6040528235611737816116e5565b81526020830135611747816116e5565b60208201529392505050565b6020808252825182820181905260009190848201906040850190845b8181101561179157835163ffffffff168352928401929184019160010161176f565b50909695505050505050565b600080602083850312156117b057600080fd5b823567ffffffffffffffff808211156117c857600080fd5b818501915085601f8301126117dc57600080fd5b8135818111156117eb57600080fd5b8660208285010111156117fd57600080fd5b60209290920196919550909350505050565b600082601f83011261182057600080fd5b61068c838335602085016115fe565b60008060006060848603121561184457600080fd5b833567ffffffffffffffff8082111561185c57600080fd5b6118688783880161180f565b9450602086013591508082111561187e57600080fd5b5061188b8682870161180f565b925050604084013590509250925092565b6000602082840312156118ae57600080fd5b5035919050565b6000602082840312156118c757600080fd5b813567ffffffffffffffff8111156118de57600080fd5b6118ea8482850161180f565b949350505050565b60005b8381101561190d5781810151838201526020016118f5565b50506000910152565b60006020828403121561192857600080fd5b815167ffffffffffffffff81111561193f57600080fd5b8201601f8101841361195057600080fd5b805161195e61160c826115d6565b81815285602083850101111561197357600080fd5b6119848260208301602086016118f2565b95945050505050565b60006020828403121561199f57600080fd5b8151610618816116e5565b634e487b7160e01b600052601160045260246000fd5b600063ffffffff8083168181036119d9576119d96119aa565b6001019392505050565b600081518084526119fb8160208601602086016118f2565b601f01601f19169290920160200192915050565b6001600160a01b038a81168252602082018a90528816604082015261012060608201819052600090611a438382018a6119e3565b6080840198909852505063ffffffff9490941660a085015260c08401929092526001600160801b03191660e083015260ff1661010090910152949350505050565b80516020808301519190811015611aa5576000198160200360031b1b821691505b50919050565b634e487b7160e01b600052603260045260246000fd5b60008085851115611ad157600080fd5b83861115611ade57600080fd5b5050820193919092039150565b606081526000611afe60608301866119e3565b8281036020840152611b1081866119e3565b91505060018060a01b0383166040830152949350505050565b608081526000611b3c60808301876119e3565b8281036020840152611b4e81876119e3565b604084019590955250506001600160a01b039190911660609091015292915050565b60ff828116828216039081111561068f5761068f6119aa565b61ffff818116838216019080821115611ba457611ba46119aa565b5092915050565b61ffff828116828216039080821115611ba457611ba46119aa565b60ff818116838216019081111561068f5761068f6119aa565b600060ff821680611bf257611bf26119aa565b6000190192915050565b8035602083101561068f57600019602084900360031b1b1692915050565b6bffffffffffffffffffffffff198135818116916014851015611c475780818660140360031b1b83161692505b505092915050565b6001600160e01b03198135818116916004851015611c475760049490940360031b84901b1690921692915050565b6001600160801b03198135818116916010851015611c475760109490940360031b84901b1690921692915050565b8183823760009101908152919050565b600060208284031215611ccd57600080fd5b8151801515811461061857600080fd5b634e487b7160e01b600052602160045260246000fd5b60008251611d058184602087016118f2565b919091019291505056fe60a060405234801561001057600080fd5b5060405161103f38038061103f83398101604081905261002f91610148565b8282600361003d8382610258565b50600461004a8282610258565b5050506001600160a01b03811660805260056100668482610258565b5060066100738382610258565b50506007805460ff19166012179055506103179050565b634e487b7160e01b600052604160045260246000fd5b600082601f8301126100b157600080fd5b81516001600160401b03808211156100cb576100cb61008a565b604051601f8301601f19908116603f011681019082821181831017156100f3576100f361008a565b816040528381526020925086602085880101111561011057600080fd5b600091505b838210156101325785820183015181830184015290820190610115565b6000602085830101528094505050505092915050565b60008060006060848603121561015d57600080fd5b83516001600160401b038082111561017457600080fd5b610180878388016100a0565b9450602086015191508082111561019657600080fd5b506101a3868287016100a0565b604086015190935090506001600160a01b03811681146101c257600080fd5b809150509250925092565b600181811c908216806101e157607f821691505b60208210810361020157634e487b7160e01b600052602260045260246000fd5b50919050565b601f821115610253576000816000526020600020601f850160051c810160208610156102305750805b601f850160051c820191505b8181101561024f5782815560010161023c565b5050505b505050565b81516001600160401b038111156102715761027161008a565b6102858161027f84546101cd565b84610207565b602080601f8311600181146102ba57600084156102a25750858301515b600019600386901b1c1916600185901b17855561024f565b600085815260208120601f198616915b828110156102e9578886015182559484019460019091019084016102ca565b50858210156103075787850151600019600388901b60f8161c191681555b5050505050600190811b01905550565b608051610cd561036a60003960008181610157015281816102c1015281816102eb015281816103320152818161037a015281816103a5015281816103e301528181610418015261044f0152610cd56000f3fe608060405234801561001057600080fd5b50600436106100a95760003560e01c806370a082311161007157806370a08231146101295780638da5cb5b1461015257806395d89b4114610191578063a9059cbb14610199578063ab8c131f146101ac578063dd62ed3e146101c157600080fd5b806306fdde03146100ae578063095ea7b3146100cc57806318160ddd146100ef57806323b872dd14610101578063313ce56714610114575b600080fd5b6100b66101fa565b6040516100c39190610917565b60405180910390f35b6100df6100da366004610982565b61028c565b60405190151581526020016100c3565b6002545b6040519081526020016100c3565b6100df61010f3660046109ac565b6102a6565b60075460405160ff90911681526020016100c3565b6100f36101373660046109e8565b6001600160a01b031660009081526020819052604090205490565b6101797f000000000000000000000000000000000000000000000000000000000000000081565b6040516001600160a01b0390911681526020016100c3565b6100b661035f565b6100df6101a7366004610982565b61036e565b6101bf6101ba366004610a03565b610444565b005b6100f36101cf366004610a58565b6001600160a01b03918216600090815260016020908152604080832093909416825291909152205490565b60606005805461020990610a8b565b80601f016020809104026020016040519081016040528092919081815260200182805461023590610a8b565b80156102825780601f1061025757610100808354040283529160200191610282565b820191906000526020600020905b81548152906001019060200180831161026557829003601f168201915b5050505050905090565b60003361029a818585610595565b60019150505b92915050565b6000806102b48585856105a2565b9050336001600160a01b037f00000000000000000000000000000000000000000000000000000000000000001614801561031f57507f00000000000000000000000000000000000000000000000000000000000000006001600160a01b0316846001600160a01b0316145b80156103285750805b15610357576103577f0000000000000000000000000000000000000000000000000000000000000000846105c6565b949350505050565b60606006805461020990610a8b565b60006001600160a01b037f00000000000000000000000000000000000000000000000000000000000000001633036103ca576103ca7f000000000000000000000000000000000000000000000000000000000000000083610600565b60006103d68484610636565b9050336001600160a01b037f00000000000000000000000000000000000000000000000000000000000000001614801561040e575080155b1561043d5761043d7f0000000000000000000000000000000000000000000000000000000000000000846105c6565b9392505050565b336001600160a01b037f000000000000000000000000000000000000000000000000000000000000000016146104b75760405162461bcd60e51b8152602060048201526013602482015272556e617574686f72697365642041636365737360681b60448201526064015b60405180910390fd5b6001600160801b0319821615610520576001600160801b031982166104dc6006610ac5565b6001600160801b03191614610520576040516001600160801b0319831660208201526030016040516020818303038152906040526006908161051e9190610b7d565b505b821561056157826105316005610c3d565b14610561576040805160208101859052016040516020818303038152906040526005908161055f9190610b7d565b505b60ff81161580159061057b575060075460ff828116911614155b15610590576007805460ff191660ff83161790555b505050565b6105908383836001610644565b6000336105b085828561071a565b6105bb858585610792565b506001949350505050565b6001600160a01b0382166105f057604051634b637e8f60e11b8152600060048201526024016104ae565b6105fc826000836107ed565b5050565b6001600160a01b03821661062a5760405163ec442f0560e01b8152600060048201526024016104ae565b6105fc600083836107ed565b60003361029a818585610792565b6001600160a01b03841661066e5760405163e602df0560e01b8152600060048201526024016104ae565b6001600160a01b03831661069857604051634a1406b160e11b8152600060048201526024016104ae565b6001600160a01b038085166000908152600160209081526040808320938716835292905220829055801561071457826001600160a01b0316846001600160a01b03167f8c5be1e5ebec7d5bd14f71427d1e84f3dd0314c0f7b2291e5b200ac8c7c3b9258460405161070b91815260200190565b60405180910390a35b50505050565b6001600160a01b038381166000908152600160209081526040808320938616835292905220546000198114610714578181101561078357604051637dc7a0d960e11b81526001600160a01b038416600482015260248101829052604481018390526064016104ae565b61071484848484036000610644565b6001600160a01b0383166107bc57604051634b637e8f60e11b8152600060048201526024016104ae565b6001600160a01b0382166107e65760405163ec442f0560e01b8152600060048201526024016104ae565b6105908383835b6001600160a01b03831661081857806002600082825461080d9190610c7e565b9091555061088a9050565b6001600160a01b0383166000908152602081905260409020548181101561086b5760405163391434e360e21b81526001600160a01b038516600482015260248101829052604481018390526064016104ae565b6001600160a01b03841660009081526020819052604090209082900390555b6001600160a01b0382166108a6576002805482900390556108c5565b6001600160a01b03821660009081526020819052604090208054820190555b816001600160a01b0316836001600160a01b03167fddf252ad1be2c89b69c2b068fc378daa952ba7f163c4a11628f55a4df523b3ef8360405161090a91815260200190565b60405180910390a3505050565b60006020808352835180602085015260005b8181101561094557858101830151858201604001528201610929565b506000604082860101526040601f19601f8301168501019250505092915050565b80356001600160a01b038116811461097d57600080fd5b919050565b6000806040838503121561099557600080fd5b61099e83610966565b946020939093013593505050565b6000806000606084860312156109c157600080fd5b6109ca84610966565b92506109d860208501610966565b9150604084013590509250925092565b6000602082840312156109fa57600080fd5b61043d82610966565b600080600060608486031215610a1857600080fd5b8335925060208401356001600160801b031981168114610a3757600080fd5b9150604084013560ff81168114610a4d57600080fd5b809150509250925092565b60008060408385031215610a6b57600080fd5b610a7483610966565b9150610a8260208401610966565b90509250929050565b600181811c90821680610a9f57607f821691505b602082108103610abf57634e487b7160e01b600052602260045260246000fd5b50919050565b6000610ad18254610a8b565b82601f821115610ae75783600052602060002090505b546001600160801b031980821693506010831015610b0f5780818460100360031b1b83161693505b505050919050565b634e487b7160e01b600052604160045260246000fd5b601f821115610590576000816000526020600020601f850160051c81016020861015610b565750805b601f850160051c820191505b81811015610b7557828155600101610b62565b505050505050565b815167ffffffffffffffff811115610b9757610b97610b17565b610bab81610ba58454610a8b565b84610b2d565b602080601f831160018114610be05760008415610bc85750858301515b600019600386901b1c1916600185901b178555610b75565b600085815260208120601f198616915b82811015610c0f57888601518255948401946001909101908401610bf0565b5085821015610c2d5787850151600019600388901b60f8161c191681555b5050505050600190811b01905550565b6000610c498254610a8b565b82601f821115610c5f5783600052602060002090505b5491506020811015610abf5760001960209190910360031b1b16919050565b808201808211156102a057634e487b7160e01b600052601160045260246000fdfea2646970667358221220db499cc3a3ee09783b57cacd1a830c54c1e746bce5823fba26cb757c17afdb2f64736f6c63430008190033a26469706673582212209d0fc7c8a95ebcb488472078abb653421ad374b087b134ec4251bb95eaa99c2d64736f6c63430008190033","linkReferences":{}},"methodIdentifiers":{"burn(uint256,address,bytes)":"2e342d49","deployERC20(string,string,bytes32)":"84e7ee82","getBaseToken(address)":"0c10fd0f","getDepositBlocks()":"52206d37","getMinterAddress()":"93e5d42a","getWrappedToken(bytes32)":"938bef40","increment((uint8,uint8))":"4ab09273","mint(bytes)":"7ba0e2e7","minterCanisterAddress()":"565e4324","operationIDCounter()":"92e2390a","size((uint8,uint8))":"94c2dfa1","toIDfromBaseAddress(uint32,address)":"43bbf0c4","truncateUTF8(string)":"ab5e33a3"},"id":27}