{
  "abi": [
    {
      "type": "constructor",
      "inputs": [
        {
          "name": "name_",
          "type": "string",
          "internalType": "string"
        },
        {
          "name": "symbol_",
          "type": "string",
          "internalType": "string"
        },
        {
          "name": "_owner",
          "type": "address",
          "internalType": "address"
        }
      ],
      "stateMutability": "nonpayable"
    },
    {
      "type": "function",
      "name": "allowance",
      "inputs": [
        {
          "name": "owner",
          "type": "address",
          "internalType": "address"
        },
        {
          "name": "spender",
          "type": "address",
          "internalType": "address"
        }
      ],
      "outputs": [
        {
          "name": "",
          "type": "uint256",
          "internalType": "uint256"
        }
      ],
      "stateMutability": "view"
    },
    {
      "type": "function",
      "name": "approve",
      "inputs": [
        {
          "name": "spender",
          "type": "address",
          "internalType": "address"
        },
        {
          "name": "value",
          "type": "uint256",
          "internalType": "uint256"
        }
      ],
      "outputs": [
        {
          "name": "",
          "type": "bool",
          "internalType": "bool"
        }
      ],
      "stateMutability": "nonpayable"
    },
    {
      "type": "function",
      "name": "balanceOf",
      "inputs": [
        {
          "name": "account",
          "type": "address",
          "internalType": "address"
        }
      ],
      "outputs": [
        {
          "name": "",
          "type": "uint256",
          "internalType": "uint256"
        }
      ],
      "stateMutability": "view"
    },
    {
      "type": "function",
      "name": "decimals",
      "inputs": [],
      "outputs": [
        {
          "name": "",
          "type": "uint8",
          "internalType": "uint8"
        }
      ],
      "stateMutability": "view"
    },
    {
      "type": "function",
      "name": "name",
      "inputs": [],
      "outputs": [
        {
          "name": "",
          "type": "string",
          "internalType": "string"
        }
      ],
      "stateMutability": "view"
    },
    {
      "type": "function",
      "name": "owner",
      "inputs": [],
      "outputs": [
        {
          "name": "",
          "type": "address",
          "internalType": "address"
        }
      ],
      "stateMutability": "view"
    },
    {
      "type": "function",
      "name": "setMetaData",
      "inputs": [
        {
          "name": "name_",
          "type": "bytes32",
          "internalType": "bytes32"
        },
        {
          "name": "symbol_",
          "type": "bytes16",
          "internalType": "bytes16"
        },
        {
          "name": "decimals_",
          "type": "uint8",
          "internalType": "uint8"
        }
      ],
      "outputs": [],
      "stateMutability": "nonpayable"
    },
    {
      "type": "function",
      "name": "symbol",
      "inputs": [],
      "outputs": [
        {
          "name": "",
          "type": "string",
          "internalType": "string"
        }
      ],
      "stateMutability": "view"
    },
    {
      "type": "function",
      "name": "totalSupply",
      "inputs": [],
      "outputs": [
        {
          "name": "",
          "type": "uint256",
          "internalType": "uint256"
        }
      ],
      "stateMutability": "view"
    },
    {
      "type": "function",
      "name": "transfer",
      "inputs": [
        {
          "name": "to",
          "type": "address",
          "internalType": "address"
        },
        {
          "name": "value",
          "type": "uint256",
          "internalType": "uint256"
        }
      ],
      "outputs": [
        {
          "name": "",
          "type": "bool",
          "internalType": "bool"
        }
      ],
      "stateMutability": "nonpayable"
    },
    {
      "type": "function",
      "name": "transferFrom",
      "inputs": [
        {
          "name": "sender",
          "type": "address",
          "internalType": "address"
        },
        {
          "name": "recipient",
          "type": "address",
          "internalType": "address"
        },
        {
          "name": "amount",
          "type": "uint256",
          "internalType": "uint256"
        }
      ],
      "outputs": [
        {
          "name": "",
          "type": "bool",
          "internalType": "bool"
        }
      ],
      "stateMutability": "nonpayable"
    },
    {
      "type": "event",
      "name": "Approval",
      "inputs": [
        {
          "name": "owner",
          "type": "address",
          "indexed": true,
          "internalType": "address"
        },
        {
          "name": "spender",
          "type": "address",
          "indexed": true,
          "internalType": "address"
        },
        {
          "name": "value",
          "type": "uint256",
          "indexed": false,
          "internalType": "uint256"
        }
      ],
      "anonymous": false
    },
    {
      "type": "event",
      "name": "Transfer",
      "inputs": [
        {
          "name": "from",
          "type": "address",
          "indexed": true,
          "internalType": "address"
        },
        {
          "name": "to",
          "type": "address",
          "indexed": true,
          "internalType": "address"
        },
        {
          "name": "value",
          "type": "uint256",
          "indexed": false,
          "internalType": "uint256"
        }
      ],
      "anonymous": false
    },
    {
      "type": "error",
      "name": "ERC20InsufficientAllowance",
      "inputs": [
        {
          "name": "spender",
          "type": "address",
          "internalType": "address"
        },
        {
          "name": "allowance",
          "type": "uint256",
          "internalType": "uint256"
        },
        {
          "name": "needed",
          "type": "uint256",
          "internalType": "uint256"
        }
      ]
    },
    {
      "type": "error",
      "name": "ERC20InsufficientBalance",
      "inputs": [
        {
          "name": "sender",
          "type": "address",
          "internalType": "address"
        },
        {
          "name": "balance",
          "type": "uint256",
          "internalType": "uint256"
        },
        {
          "name": "needed",
          "type": "uint256",
          "internalType": "uint256"
        }
      ]
    },
    {
      "type": "error",
      "name": "ERC20InvalidApprover",
      "inputs": [
        {
          "name": "approver",
          "type": "address",
          "internalType": "address"
        }
      ]
    },
    {
      "type": "error",
      "name": "ERC20InvalidReceiver",
      "inputs": [
        {
          "name": "receiver",
          "type": "address",
          "internalType": "address"
        }
      ]
    },
    {
      "type": "error",
      "name": "ERC20InvalidSender",
      "inputs": [
        {
          "name": "sender",
          "type": "address",
          "internalType": "address"
        }
      ]
    },
    {
      "type": "error",
      "name": "ERC20InvalidSpender",
      "inputs": [
        {
          "name": "spender",
          "type": "address",
          "internalType": "address"
        }
      ]
    }
  ],
  "bytecode": {
    "object": "0x60a060405234801561001057600080fd5b5060405161103f38038061103f83398101604081905261002f91610148565b8282600361003d8382610258565b50600461004a8282610258565b5050506001600160a01b03811660805260056100668482610258565b5060066100738382610258565b50506007805460ff19166012179055506103179050565b634e487b7160e01b600052604160045260246000fd5b600082601f8301126100b157600080fd5b81516001600160401b03808211156100cb576100cb61008a565b604051601f8301601f19908116603f011681019082821181831017156100f3576100f361008a565b816040528381526020925086602085880101111561011057600080fd5b600091505b838210156101325785820183015181830184015290820190610115565b6000602085830101528094505050505092915050565b60008060006060848603121561015d57600080fd5b83516001600160401b038082111561017457600080fd5b610180878388016100a0565b9450602086015191508082111561019657600080fd5b506101a3868287016100a0565b604086015190935090506001600160a01b03811681146101c257600080fd5b809150509250925092565b600181811c908216806101e157607f821691505b60208210810361020157634e487b7160e01b600052602260045260246000fd5b50919050565b601f821115610253576000816000526020600020601f850160051c810160208610156102305750805b601f850160051c820191505b8181101561024f5782815560010161023c565b5050505b505050565b81516001600160401b038111156102715761027161008a565b6102858161027f84546101cd565b84610207565b602080601f8311600181146102ba57600084156102a25750858301515b600019600386901b1c1916600185901b17855561024f565b600085815260208120601f198616915b828110156102e9578886015182559484019460019091019084016102ca565b50858210156103075787850151600019600388901b60f8161c191681555b5050505050600190811b01905550565b608051610cd561036a60003960008181610157015281816102c1015281816102eb015281816103320152818161037a015281816103a5015281816103e301528181610418015261044f0152610cd56000f3fe608060405234801561001057600080fd5b50600436106100a95760003560e01c806370a082311161007157806370a08231146101295780638da5cb5b1461015257806395d89b4114610191578063a9059cbb14610199578063ab8c131f146101ac578063dd62ed3e146101c157600080fd5b806306fdde03146100ae578063095ea7b3146100cc57806318160ddd146100ef57806323b872dd14610101578063313ce56714610114575b600080fd5b6100b66101fa565b6040516100c39190610917565b60405180910390f35b6100df6100da366004610982565b61028c565b60405190151581526020016100c3565b6002545b6040519081526020016100c3565b6100df61010f3660046109ac565b6102a6565b60075460405160ff90911681526020016100c3565b6100f36101373660046109e8565b6001600160a01b031660009081526020819052604090205490565b6101797f000000000000000000000000000000000000000000000000000000000000000081565b6040516001600160a01b0390911681526020016100c3565b6100b661035f565b6100df6101a7366004610982565b61036e565b6101bf6101ba366004610a03565b610444565b005b6100f36101cf366004610a58565b6001600160a01b03918216600090815260016020908152604080832093909416825291909152205490565b60606005805461020990610a8b565b80601f016020809104026020016040519081016040528092919081815260200182805461023590610a8b565b80156102825780601f1061025757610100808354040283529160200191610282565b820191906000526020600020905b81548152906001019060200180831161026557829003601f168201915b5050505050905090565b60003361029a818585610595565b60019150505b92915050565b6000806102b48585856105a2565b9050336001600160a01b037f00000000000000000000000000000000000000000000000000000000000000001614801561031f57507f00000000000000000000000000000000000000000000000000000000000000006001600160a01b0316846001600160a01b0316145b80156103285750805b15610357576103577f0000000000000000000000000000000000000000000000000000000000000000846105c6565b949350505050565b60606006805461020990610a8b565b60006001600160a01b037f00000000000000000000000000000000000000000000000000000000000000001633036103ca576103ca7f000000000000000000000000000000000000000000000000000000000000000083610600565b60006103d68484610636565b9050336001600160a01b037f00000000000000000000000000000000000000000000000000000000000000001614801561040e575080155b1561043d5761043d7f0000000000000000000000000000000000000000000000000000000000000000846105c6565b9392505050565b336001600160a01b037f000000000000000000000000000000000000000000000000000000000000000016146104b75760405162461bcd60e51b8152602060048201526013602482015272556e617574686f72697365642041636365737360681b60448201526064015b60405180910390fd5b6001600160801b0319821615610520576001600160801b031982166104dc6006610ac5565b6001600160801b03191614610520576040516001600160801b0319831660208201526030016040516020818303038152906040526006908161051e9190610b7d565b505b821561056157826105316005610c3d565b14610561576040805160208101859052016040516020818303038152906040526005908161055f9190610b7d565b505b60ff81161580159061057b575060075460ff828116911614155b15610590576007805460ff191660ff83161790555b505050565b6105908383836001610644565b6000336105b085828561071a565b6105bb858585610792565b506001949350505050565b6001600160a01b0382166105f057604051634b637e8f60e11b8152600060048201526024016104ae565b6105fc826000836107ed565b5050565b6001600160a01b03821661062a5760405163ec442f0560e01b8152600060048201526024016104ae565b6105fc600083836107ed565b60003361029a818585610792565b6001600160a01b03841661066e5760405163e602df0560e01b8152600060048201526024016104ae565b6001600160a01b03831661069857604051634a1406b160e11b8152600060048201526024016104ae565b6001600160a01b038085166000908152600160209081526040808320938716835292905220829055801561071457826001600160a01b0316846001600160a01b03167f8c5be1e5ebec7d5bd14f71427d1e84f3dd0314c0f7b2291e5b200ac8c7c3b9258460405161070b91815260200190565b60405180910390a35b50505050565b6001600160a01b038381166000908152600160209081526040808320938616835292905220546000198114610714578181101561078357604051637dc7a0d960e11b81526001600160a01b038416600482015260248101829052604481018390526064016104ae565b61071484848484036000610644565b6001600160a01b0383166107bc57604051634b637e8f60e11b8152600060048201526024016104ae565b6001600160a01b0382166107e65760405163ec442f0560e01b8152600060048201526024016104ae565b6105908383835b6001600160a01b03831661081857806002600082825461080d9190610c7e565b9091555061088a9050565b6001600160a01b0383166000908152602081905260409020548181101561086b5760405163391434e360e21b81526001600160a01b038516600482015260248101829052604481018390526064016104ae565b6001600160a01b03841660009081526020819052604090209082900390555b6001600160a01b0382166108a6576002805482900390556108c5565b6001600160a01b03821660009081526020819052604090208054820190555b816001600160a01b0316836001600160a01b03167fddf252ad1be2c89b69c2b068fc378daa952ba7f163c4a11628f55a4df523b3ef8360405161090a91815260200190565b60405180910390a3505050565b60006020808352835180602085015260005b8181101561094557858101830151858201604001528201610929565b506000604082860101526040601f19601f8301168501019250505092915050565b80356001600160a01b038116811461097d57600080fd5b919050565b6000806040838503121561099557600080fd5b61099e83610966565b946020939093013593505050565b6000806000606084860312156109c157600080fd5b6109ca84610966565b92506109d860208501610966565b9150604084013590509250925092565b6000602082840312156109fa57600080fd5b61043d82610966565b600080600060608486031215610a1857600080fd5b8335925060208401356001600160801b031981168114610a3757600080fd5b9150604084013560ff81168114610a4d57600080fd5b809150509250925092565b60008060408385031215610a6b57600080fd5b610a7483610966565b9150610a8260208401610966565b90509250929050565b600181811c90821680610a9f57607f821691505b602082108103610abf57634e487b7160e01b600052602260045260246000fd5b50919050565b6000610ad18254610a8b565b82601f821115610ae75783600052602060002090505b546001600160801b031980821693506010831015610b0f5780818460100360031b1b83161693505b505050919050565b634e487b7160e01b600052604160045260246000fd5b601f821115610590576000816000526020600020601f850160051c81016020861015610b565750805b601f850160051c820191505b81811015610b7557828155600101610b62565b505050505050565b815167ffffffffffffffff811115610b9757610b97610b17565b610bab81610ba58454610a8b565b84610b2d565b602080601f831160018114610be05760008415610bc85750858301515b600019600386901b1c1916600185901b178555610b75565b600085815260208120601f198616915b82811015610c0f57888601518255948401946001909101908401610bf0565b5085821015610c2d5787850151600019600388901b60f8161c191681555b5050505050600190811b01905550565b6000610c498254610a8b565b82601f821115610c5f5783600052602060002090505b5491506020811015610abf5760001960209190910360031b1b16919050565b808201808211156102a057634e487b7160e01b600052601160045260246000fdfea2646970667358221220db499cc3a3ee09783b57cacd1a830c54c1e746bce5823fba26cb757c17afdb2f64736f6c63430008190033",
    "linkReferences": {}
  },
  "methodIdentifiers": {
    "allowance(address,address)": "dd62ed3e",
    "approve(address,uint256)": "095ea7b3",
    "balanceOf(address)": "70a08231",
    "decimals()": "313ce567",
    "name()": "06fdde03",
    "owner()": "8da5cb5b",
    "setMetaData(bytes32,bytes16,uint8)": "ab8c131f",
    "symbol()": "95d89b41",
    "totalSupply()": "18160ddd",
    "transfer(address,uint256)": "a9059cbb",
    "transferFrom(address,address,uint256)": "23b872dd"
  },
  "id": 28
}